:020000040000FA
:1000000008030020A1020000A9020000AB020000CA
:10001000AD020000AF020000B102000000000000CD
:10002000000000000000000000000000B30200001B
:10003000B502000000000000B702000055160000E5
:10004000BB020000BD020000BF020000C1020000B0
:10005000C3020000C5020000C7020000C902000080
:10006000CB020000CD020000CF020000D102000050
:10007000D3020000D5020000D7020000D902000020
:10008000DB020000DD020000DF020000E1020000F0
:10009000E3020000E5020000E7020000E9020000C0
:1000A000EB020000ED020000EF020000F102000090
:1000B000F3020000F5020000F7020000F902000060
:1000C000FB020000FD020000FF020000010300002F
:1000D00003030000050300000703000009030000FC
:1000E0000B0300000D0300000F03000011030000CC
:1000F000130300001503000017030000190300009C
:100100001B0300001D0300001F030000210300006B
:10011000230300002503000027030000290300003B
:100120002B0300002D0300002F030000310300000B
:1001300033030000350300003703000039030000DB
:100140003B0300003D0300003F0300005903000093
:1001500000000000000000005B0300005D030000E1
:100160005F03000061030000000000006303000063
:100170006503000067030000690300006B030000D3
:100180006D0300006F0300007103000073030000A3
:100190007503000077030000790300007B03000073
:1001A0007D0300007F030000810300008303000043
:1001B0008503000087030000890300008B03000013
:1001C0008D0300008F0300009103000093030000E3
:1001D0009503000097030000990300009B030000B3
:1001E0009D0300009F030000A1030000A303000083
:1001F000A5030000A7030000A9030000AB03000053
:1002000000F002F800F03CF80AA090E8000C8244EC
:100210008344AAF10107DA4501D100F031F8AFF2C9
:10022000090EBAE80F0013F0010F18BFFB1A43F0D4
:1002300001031847A01F0000C01F0000103A24BF90
:1002400078C878C1FAD8520724BF30C830C144BF3B
:1002500004680C607047000000230024002500267D
:10026000103A28BF78C1FBD8520728BF30C148BF19
:100270000B6070471FB501F069FD1FBD10B510BDC3
:1002800000F0A7F81146FFF7F5FF01F0C7FA00F0FC
:10029000C5F803B4FFF7F2FF03BC00F0CDF800008F
:1002A0004548804745480047FEE7FEE7FEE7FEE792
:1002B000FEE7FEE7FEE7FEE7FEE7FEE7FEE7FEE716
:1002C000FEE7FEE7FEE7FEE7FEE7FEE7FEE7FEE706
:1002D000FEE7FEE7FEE7FEE7FEE7FEE7FEE7FEE7F6
:1002E000FEE7FEE7FEE7FEE7FEE7FEE7FEE7FEE7E6
:1002F000FEE7FEE7FEE7FEE7FEE7FEE7FEE7FEE7D6
:10030000FEE7FEE7FEE7FEE7FEE7FEE7FEE7FEE7C5
:10031000FEE7FEE7FEE7FEE7FEE7FEE7FEE7FEE7B5
:10032000FEE7FEE7FEE7FEE7FEE7FEE7FEE7FEE7A5
:10033000FEE7FEE7FEE7FEE7FEE7FEE7FEE7FEE795
:10034000FEE7FEE7FEE7FEE7FEE7FEE7FEE7FEE785
:10035000FEE7FEE7FEE7FEE7FEE7FEE7FEE7FEE775
:10036000FEE7FEE7FEE7FEE7FEE7FEE7FEE7FEE765
:10037000FEE7FEE7FEE7FEE7FEE7FEE7FEE7FEE755
:10038000FEE7FEE7FEE7FEE7FEE7FEE7FEE7FEE745
:10039000FEE7FEE7FEE7FEE7FEE7FEE7FEE7FEE735
:1003A000FEE7FEE7FEE7FEE7FEE7FEE70448054955
:1003B000034A054B70470000A5160000010200002B
:1003C0000801002008030020080100207047704742
:1003D0007047754600F02CF8AE4605006946534656
:1003E00020F00700854618B020B5FFF7DFFFBDE815
:1003F00020404FF000064FF000074FF000084FF08C
:10040000000B21F00701AC46ACE8C009ACE8C0091C
:10041000ACE8C009ACE8C0098D46704710B5044689
:10042000AFF300802046BDE81040FFF732BF000068
:1004300000487047A800002001491820ABBEFEE725
:10044000260002007047002100E0491C8142FCD3D5
:100450007047D0F8003412F0010F14BF0B438B43E8
:10046000C0F8003412F0020FD0F8202414BF11435A
:1004700022EA0101C0F8201470472DE9F00301269B
:100480004FF0000C0325C2F3411706FA0CF40C429E
:1004900011D0D0F8C48F4FEA4C0405FA04F928EAC9
:1004A0000908C0F8C48FD0F8C48F07FA04F448EAEA
:1004B0000404C0F8C44F0CF1010C0CF0FF0CBCF1AB
:1004C000080FE2D3D0F800C512F0010F14BF4CEAB8
:1004D000010C2CEA010CC0F800C5D0F804C512F0DC
:1004E000020F14BF4CEA010C2CEA010CC0F804C541
:1004F000D0F808C512F0040F14BF4CEA010C2CEA26
:10050000010CC0F808C5D0F818C512F0080F14BFC8
:100510004CEA010C2CEA010CC0F818C512F0100FBF
:10052000D0F83C2514BF0A438A43C0F83C25D0F8D4
:100530000C2513F0010F14BF0A438A43C0F80C25A1
:10054000D0F8102513F0020F14BF0A438A43C0F8F5
:100550001025D0F8142513F0040F14BF0A438A4362
:10056000C0F81425D0F81C2513F0080F14BF0A4357
:100570008A43C0F81C25D0F8442513F4007F14BF2B
:100580000A438A43C0F84425D0F8402513F4407F3D
:1005900014BF0A438A43C0F84025D0F82825002B11
:1005A0000CBF114322EA0101C0F82815BDE8F00391
:1005B000704700000E4AC0F30741D26E01238B4002
:1005C0001A420C4A1ABF02EBC101496852F83110B5
:1005D000020AD1F82C354FF00F0C0CFA02FC00F097
:1005E0000F0023EA0C0390401843C1F82C05704714
:1005F00000E00F40F01E000030B50C460546082311
:100600000122FFF73AFF21462846BDE8304001228B
:10061000FFF71FBF30B50C4605460222FFF719FF52
:1006200021462846BDE8304009230122FFF725BFB7
:1006300030B50C4605460222FFF70BFF214628463F
:10064000BDE8304008230122FFF717BF30B50C4644
:1006500005460222FFF7FDFE21462846BDE8304050
:1006600008230122FFF709BF40F82120704700004E
:1006700010B50446702300221E21204600F042F9E6
:100680000648FFF7E0FE002301221E21204600F06D
:1006900039F90248FFF7D7FE10BD000000710200D3
:1006A00010B50446012302221E21204600F02AF93B
:1006B0004FF4FA60FFF7C7FE03221E21204600F028
:1006C000A9F82949087004221E21204600F0A2F84A
:1006D0002549487005221E21204600F09BF822493A
:1006E000887006221E21204600F094F81E49C8702A
:1006F00007221E21204600F08DF81B4908710822B0
:100700001E21204600F086F81749487108464078B7
:10071000097840EA012000B2144908801248407963
:100720001149097940EA012000B2114908800E48B8
:10073000C0780D49897840EA012000B20D4908804F
:100740000A48B0F900000C4908800948B0F90000D7
:1007500048800848B0F900008880224603210648F6
:1007600000F0FCFF10BD00008A00002026000020E1
:10077000280000202A00002094000020406810F08B
:10078000400018BF01207047406810F0010018BFFA
:1007900001207047416070478068704781607047F2
:1007A000406810F0010F05D110F0120F1CBF00F0CF
:1007B0001C00704700207047036A43F01003036277
:1007C000002A14BF0E4A0F4A02EB820301EB830397
:1007D00002EB820292005B1EB3FBF2F2521EC26079
:1007E000D0F8C02F12F0010F08BF7047064A11441D
:1007F000521CB1FBF2F1491E41F08001C16070470B
:10080000801A0600A08601007F47370142EA4101B5
:10081000016070472DE9F0470546894617460A2DC5
:100820001AD2DFE805F00507090B0D0F1113151794
:100830002A4C11E02A4C0FE02A4C0DE02A4C0BE028
:100840002A4C09E02A4C07E02A4C05E02A4C03E038
:100850002A4C01E02A4C00BF00BF00BF2046FFF732
:1008600093FF0028FAD1002249462046FFF7CEFF29
:1008700039462046FFF792FF07212046FFF78AFFFF
:1008800000BF2046FFF77AFF0028FAD1C820FFF703
:10089000DAFD2046FFF784FFC6B216B13046BDE848
:1008A000F0870A20FFF7CFFD012249462046FFF7D7
:1008B000ADFF07212046FFF76DFF00BF2046FFF781
:1008C0005DFF0028FAD14FF49670FFF7BCFD20467B
:1008D000FFF762FF00F0FF084046E0E7000002403B
:1008E00000100240002002400030024000000C4096
:1008F00000100C4000200C4000300C4000800B40E9
:1009000000900B402DE9F047064689461746984669
:100910000A2E1AD2DFE806F00507090B0D0F111396
:1009200015172F4C11E02F4C0FE02F4C0DE02F4CE2
:100930000BE02F4C09E02F4C07E02F4C05E02F4C2B
:1009400003E02F4C01E02F4C00BF00BF00BF20464A
:10095000FFF71AFF0028FAD1002249462046FFF788
:1009600055FF39462046FFF719FF03212046FFF7C0
:1009700011FF00BF2046FFF707FF0028FAD10A2029
:10098000FFF761FD2046FFF70BFFC5B235B104212B
:100990002046FFF7FFFE2846BDE8F0870A20FFF754
:1009A00052FD41462046FFF7F9FE05212046FFF79C
:1009B000F1FE00BF2046FFF7E7FE0028FAD10A202B
:1009C000FFF741FD2046FFF7EBFEC5B22DB1042134
:1009D0002046FFF7DFFE2846DEE70020DCE70000C8
:1009E000000002400010024000200240003002409F
:1009F00000000C4000100C4000200C4000300C4067
:100A000000800B4000900B4010B5044600236B2281
:100A100068212046FFF776FF072319226821204628
:100A2000FFF770FF06231A2268212046FFF76AFFAE
:100A300018231B2268212046FFF764FF01231C2294
:100A400068212046FFF75EFF10BD000010B5044688
:100A5000204600F031F8204600F09EF80F48B0F92B
:100A600000000F4908800F48B0F9000048800E4888
:100A7000B0F9000088800D48B0F90000C8800C482B
:100A8000B0F9000008810B48B0F900004881224607
:100A90000621034800F062FE10BD00002000002087
:100AA0009400002022000020240000201A000020D2
:100AB0001C0000201E00002010B504463C226821C6
:100AC0002046FFF7A7FE304908703B2268212046E8
:100AD000FFF7A0FE2C49487008460078497840EAA4
:100AE000012000B2294908800846B0F90000A4217D
:100AF00090FBF1F000B2254908803E226821204693
:100B0000FFF788FE204988703D2268212046FFF7C4
:100B100081FE1D49C87008468078C97840EA0120E6
:100B200000B21B4908800846B0F90000A42190FBE0
:100B3000F1F000B216490880402268212046FFF7F4
:100B400069FE114908713F2268212046FFF762FEC5
:100B50000D49487108460079497940EA012000B200
:100B60000C4908800846B0F90000A42190FBF1F080
:100B700000B208490880752268212046FFF74AFE26
:100B80000149C87110BD00008A000020200000202B
:100B9000220000202400002010B52DED048B044617
:100BA000442268212046FFF735FE3E490870432263
:100BB00068212046FFF72EFE3A4948700846007823
:100BC000497840EA012000B2374908800846B0F968
:100BD000000001F050F841EC190B9FED340B53EC81
:100BE000102B00F0C1FE41EC180B01F015F800B21B
:100BF0002D490880462268212046FFF70BFE29492F
:100C00008870452268212046FFF704FE2549C870F8
:100C100008468078C97840EA012000B2254908805A
:100C20000846B0F9000001F026F841EC190B9FEDE1
:100C30001F0B53EC102B00F097FE41EC180B00F04B
:100C4000EBFF00B21B490880482268212046FFF7CD
:100C5000E1FD14490871472268212046FFF7DAFDBB
:100C60001049487108460079497940EA012000B2EC
:100C7000114908800846B0F9000000F0FCFF41EC83
:100C8000190B9FED0A0B53EC102B00F06DFE41EC9D
:100C9000180B00F0C1FF00B207490880BDEC048BBF
:100CA00010BD00008A0000201A00002066666666FB
:100CB000666630401C0000201E00002010B504466F
:100CC00004F0010050B3FE4800F086FCFD4800F03F
:100CD00083FC02220C21FC48FFF7BBFBFB48FFF71B
:100CE00069FCFB48FFF766FC0421F748FFF7A0FC0E
:100CF0000821F548FFF78EFC0A2301220421F2485F
:100D0000FFF7BBFB0A2301220821EF48FFF7B5FBE1
:100D10000122F0480168F048FFF74EFD04F00200A0
:100D200060B3E748401C00F057FCE648401D00F067
:100D300053FC02220321E948FFF78BFBE848FFF749
:100D400039FCE848FFF736FC0121E448FFF770FC66
:100D50000221E248FFF75EFC0A2301221146DF4828
:100D6000FFF78BFB0A2301220221DC48FFF785FBFA
:100D70000122D8480168DC48FFF71EFD04F004009A
:100D800038B3CF48801C00F027FCCE480B3000F071
:100D900023FCD648FFF70EFCD548FFF70BFC2021BB
:100DA000D448FFF745FC1021D248FFF733FC0A2353
:100DB00001222021CF48FFF760FB0A2301221021E6
:100DC000CC48FFF75AFB0122C2480168CA48FFF726
:100DD000F3FC04F0080060B3B948C01C00F0FCFB51
:100DE000B848083000F0F8FB02223021C348FFF772
:100DF00030FBC348FFF7DEFBC248FFF7DBFB1021E7
:100E0000BE48FFF715FC2021BC48FFF703FC0A236E
:100E100001221021B948FFF730FB0A2301222021CB
:100E2000B648FFF72AFB0122AA480168B648FFF737
:100E3000C3FC04F0100060B3A148001D00F0CCFB1F
:100E4000A048083000F0C8FB0222C021AB48FFF7E1
:100E500000FBAE48FFF7AEFBAD48FFF7ABFB402110
:100E6000A648FFF7E5FB8021A448FFF7D3FB0A2340
:100E700001224021A148FFF700FB0A230122802123
:100E80009E48FFF7FAFA012292480168A148FFF74D
:100E900093FC04F0200058B38948401D00F09CFBEF
:100EA000884800F099FB022230218748FFF7D1FAE9
:100EB0009948FFF77FFB9948FFF77CFB1021824898
:100EC000FFF7B6FB20218048FFF7A4FB0A2301228D
:100ED00010217D48FFF7D1FA0A23012220217A4808
:100EE000FFF7CBFA01227B4801688D48FFF764FCCD
:100EF00004F0400098B37248801D00F06DFB71480B
:100F0000401E00F069FB0222C0214FF04020FFF795
:100F1000A0FA41F60200FFF74DFB41F60240FFF751
:100F200049FB40214FF04020FFF782FB80214FF02A
:100F30004020FFF76FFB0A23012240214FF04020A1
:100F4000FFF79BFA0A23012280214FF04020FFF790
:100F500094FA01225F4801687248FFF72DFC04F003
:100F6000800098B35648C01D00F036FB5548401E1F
:100F700000F032FB022230214FF04020FFF769FAE7
:100F800041F20200FFF716FB41F20240FFF712FBAD
:100F900010214FF04020FFF74BFB20214FF0402065
:100FA000FFF738FB0A23012210214FF04020FFF702
:100FB00064FA0A23012220214FF04020FFF75DFA56
:100FC0000122444801685848FFF7F6FB04F480709A
:100FD00068B33B48083000F0FFFA3A48401E00F082
:100FE000FBFA40F60200FFF7E5FA40F60240FFF791
:100FF000E1FA04214FF04020FFF71AFB08214FF0DF
:101000004020FFF707FB0A23012204214FF0402074
:10101000FFF733FA0A23012208214FF04020FFF79F
:101020002CFA01222B4801684048FFF7C5FB04F465
:10103000007090B32248093000F0CEFA2148401EDB
:1010400000F0CAFA022203214FF04020FFF701FA14
:101050000220FFF7AFFA40F20240FFF7ABFA01219E
:101060004FF04020FFF7E4FA02214FF04020FFF755
:10107000D1FA0A23012211464FF04020FFF7FDF973
:101080000A23012202214FF04020FFF7F6F9012246
:10109000104801682648FFF78FFB04F4806068B1B0
:1010A0000748801C00F098FA012211461148FFF70A
:1010B000DBFA0448093000F08FFA3BE05FE0000003
:1010C000002000F0010800F000500040020801007C
:1010D000020C0100040000200000024000600240F9
:1010E00002000600020406000010024003140C0077
:1010F00003100C0000400640002002400010064093
:101100000210090002140900003002400218090010
:10111000021C090000000C40021001000214010032
:1011200000100C4000200C4000300C4000800B40B0
:1011300000900B40022203214048FFF78AF9404803
:10114000FFF738FA3F48FFF735FA02213B48FFF72F
:101150006FFA01213948FFF75DFA0A2301220221C3
:101160003648FFF78AF90A23012211463348FFF770
:1011700084F90122344801683448FFF71DFB04F468
:10118000006050B3324800F027FA324800F024FAE9
:10119000022203213048FFF75CF93048FFF70AFAD2
:1011A0002F48FFF707FA01212B48FFF741FA0221E8
:1011B0002948FFF72FFA0A23012211462648FFF794
:1011C0005CF90A23012202212348FFF756F9012284
:1011D0001D4801682348FFF7EFFA04F4805058B324
:1011E0001B48401C00F0F8F91A4800F0F5F90222FB
:1011F0000C211948FFF72DF91B48FFF7DBF91B48B5
:10120000FFF7D8F904211448FFF712FA0821124811
:10121000FFF700FA0A23012204210F48FFF72DF9F6
:101220000A23012208210C48FFF727F9012206486A
:1012300001680F48FFF7C0FA10BD0000002006400B
:1012400002040A0002000A000400002000200240FC
:10125000072000F0030800F00070004002000300C7
:101260000204030000300C4002080300020C0300DB
:1012700000800B4010B5104800F0AEF90F4800F0A8
:10128000ABF900BF0D4800F0BBF90028FAD00C48BC
:10129000FFF790F90B48FFF78DF930210A48FFF767
:1012A000D5F96023094A0A4801680A4800F010FA93
:1012B00009A000F045FA10BD021800F0030800F084
:1012C00001100300011403000070004060E31600E9
:1012D0000400002000E000400D0A48656C6C6F2C93
:1012E00020776F726C64210D0A0000002DE9F00375
:1012F000AF4D02462868AF4B1840A0F18053B3F5BC
:10130000A02359D002F03809DFF8AC82C2F384146C
:10131000B9F1100F25D0B9F1300F04BF47F23050AA
:101320004FF400130DD04FF03800904304BF4FF43A
:101330000040C30105D012F0380F1CBF0020034647
:1013400013D09E4F12F4605F4FF0000618BF0022CA
:101350002CD057F8324044457DD307EBC202526887
:10136000E1E0002340461524EBE7A4F10900122830
:1013700022D29348D5F87CC04FF04C7350F824002B
:101380002CF01C0C072CA8BF4CF0100CC5F87CC02E
:101390002E6D4FF4002C16F4807FD2D1BCF1010CDD
:1013A0000AD02E6D16F4807FF8D0CAE712F0380FFD
:1013B00018BFB9F1100F04D0BDE8F0034FF00000E2
:1013C0007047C2F30268DFF8FCC14FF0000257F823
:1013D0003290E14503D307EBC202526803E0521C8E
:1013E000062AF4D33246C5F8C020D5F8B020DFF87D
:1013F000D8C102EA0C0242F00042C5F8B020DFF882
:10140000CCC1A4F109024C1E5CF828C0A444BCFB6A
:10141000F1FCD5F8B0101943C5F8B01008EBC801BD
:1014200001EB41046A4902EB420201EBC40101EB0A
:1014300082046468C5F86441D5F864416FF0FF0820
:1014400008EB0C2C44EA0C0CC5F864C151F82210CE
:10145000D5F8602100E061E002F400021143C5F814
:101460006011D5F86011D5F86021C1F38921C2F36C
:101470000904D5F86421C2F3042202F1010CD5F865
:10148000642102F01F02521CB0FBF2F04A09C2F1C3
:1014900000084443424301EB481104EB5212484315
:1014A00002EB9020B0FBFCF041080846002257F800
:1014B00032C0844503D307EBC200466802E0521CE9
:1014C000062AF4D3C5F8C060D5F8600110F4000F07
:1014D0001DBFD5F8B00040F08040C5F8B000D5F889
:1014E000600104BF40F40000C5F860014FF4004003
:1014F000D5F8682112F0010F02D1401E0028F7DC58
:10150000002808BF002148D0D5F8B000184340F0AB
:10151000010040F01040C5F8B0003EE0521C062A21
:10152000FFF417AF3246C5F8C020D5F8602122F489
:101530000002C5F86021D5F8B020DFF898C002EAB3
:101540000C0242F00042C5F8B020002908BF4FF05D
:10155000000C0AD0B0FBF1FCBCF1000F18BFACF1DD
:10156000010C0CF10101B0FBF1F10846002257F823
:101570003240844203D307EBC200466802E0521CAB
:10158000062AF4D3C5F8C060D5F8B00043EA8C222F
:10159000104340F00040C5F8B000D5F8B00020F48A
:1015A0007000C5F8B000BDE8F003084670470000C1
:1015B00000E00F400000FF700024F400A4210000B0
:1015C000881F000040787D0100FC0FE0801F0000B4
:1015D000F41F0000FF0300EFC0F307230749C0B268
:1015E000194401F07043C1F3130143EA411141EA88
:1015F000800040F0007001220260704700E60F405A
:10160000C0F307220849C0B2114401F07042C1F38F
:10161000130142EA411141EA800040F00070006885
:10162000002818BF0120704700EA0F404FF0E0206B
:10163000016941F00501016170474FF0E020016947
:1016400041F00201016170474FF0E021401E486106
:10165000704700000F48008828B10E480088401EDF
:101660000C49088005E0C8200A49088001200A4981
:1016700008700A48008828B108480088401E0749B9
:10168000088005E00A200549088001200449087007
:10169000704700003A0000203D0000203800002084
:1016A0003C0000200448006840F4700002490860D3
:1016B000024803490860704788ED00E00024F40008
:1016C00044000020826912F0200FFBD101607047B6
:1016D000D0F818C01CF0080FFAD1D0F82CC02CF0AC
:1016E000100CC0F82CC0D0F830C02CF0010C2CF439
:1016F000407CC0F830C0D0F830C0B1EB021F34BF1E
:101700004CF0200C2CF0200CC0F830C038BF520830
:10171000C900B1FBF2F1491C49088A09426201F093
:101720003F018162C36200218161C16A41F0100101
:10173000C162016B40F20132114301637047000046
:1017400010B5044604E014F8011B0348FFF7BAFF84
:1017500020780028F7D110BD00E00040F0B5034626
:10176000002035E033F9105033F91060002E09DA0B
:101770002D26C0EBC007DFF8A0C00CF807606E4252
:1017800035B206E03026C0EBC007DFF88CC00CF89D
:1017900007602027C0EBC006B61DDFF87CC00CF840
:1017A0000670052411E00A2695FBF6F706FB17568E
:1017B0003036C0EBC0072744DFF85CC00CF8076088
:1017C0000A2695FBF6F635B2641E002CEBDC401CB5
:1017D0008842C7DB0A2A08DA02F13006C1EBC107EA
:1017E000DFF834C00CF8076007E002F13706C1EB00
:1017F000C107DFF824C00CF807600A27C1EBC10657
:10180000761CDFF814C00CF806700027C1EBC10687
:10181000B61C0CF80670F0BD480000204A4943F69B
:101820005050FFF763FD494908604948FFF7D4FE6F
:1018300000BF4748FFF7E4FE0028FAD0434800689D
:101840004FF47A71B0FBF1F42046FFF7FDFEFFF78D
:10185000EDFEFFF7F2FE01213E48FEF7CDFE3E48C9
:101860000088FFF72BFA0020FEF702FF0020FFF7A9
:10187000CBF80120FEF7FCFE0220FEF7F9FE032064
:10188000FEF7F6FE0420FEF7F3FE0520FEF7F0FE5D
:101890000620FEF7EDFE0720FEF7EAFE0820FEF721
:1018A000E7FE0920FEF7E4FEFFF7E4FC00202B49E9
:1018B000088047E02A480078002843D000202849C3
:1018C0000870FEF7EDFE2748FFF73AFF0120FEF70C
:1018D000E7FE2448FFF734FF0220FEF7E1FE21482F
:1018E000FFF72EFF0320FEF7DBFE1E48FFF728FF61
:1018F0000420FEF7D5FE1B48FFF722FF0520FEF768
:10190000CFFE1848FFF71CFF0620FEF7C9FE15485A
:10191000FFF716FF0720FEF7C3FE1248FFF710FF80
:101920000820FEF7BDFE0F48FFF70AFF0920FEF76B
:10193000B7FE0C48FFF704FF0020FFF787F80948BF
:10194000FFF7FEFEB6E700000024F40004000020CC
:101950000C0800F000400640320000201A00002071
:101960003D000020480000202DE9C04130B4DFF8E0
:10197000A0C23CEA111418BF3CEA131400F0EC803A
:1019800081EA03051CEA111444EAD57418BF1CEA65
:10199000131500F0C780A4EB05044FF0004545EA9D
:1019A000C12145EAC32341EA505143EA525304F1AD
:1019B0007F74994204F500344FEAC0204FEAC222F6
:1019C00008BF904200F09C804FEA13650FF240166A
:1019D000765D4FEA134506FB05F7C7F1807706FBF6
:1019E00007F74FEAD737A7FB03687642C8F5803878
:1019F000A7FB06CE38BFA8F1010807FB08E64FF0A9
:101A0000000EA6FB028CE6FB03CEDCF1000CCEF14F
:101A1000004E38BFAEF1010EA6FB0C584FF0000788
:101A20004FF00005E6FB0E87A1FB08C6A0FB07CE22
:101A300016EB0E0645F10005E1FB076515F1E04EDA
:101A40007EBFA4F580345FEA46066D4116F180073B
:101A500045F100054FEA17274FEA066647EA056792
:101A6000A6F1DE46B6F1805F4FEA15251FD938464C
:101A700024F0010C05EBC471BCF1FE6F01EB0C11FD
:101A800002D8F0BCBDE8008124425CBF01F5801E95
:101A90009EEAC47F02D4F0BCBDE80081244238D461
:101AA000F0BCA1F1C041BDE8004100F049B94FEAE6
:101AB000D22242EA43524FEAD323A7FB02864FEADF
:101AC000D02040EA415007FB03661EEA0E0F4FEAA2
:101AD000D12105FB026658BFA6EB0056B6EB0056B7
:101AE0004FEA520E4EEAC37E18EB0E0E56EB530E23
:101AF000BDD518EB02085E417F1C55F10005B6E725
:101B00004FF480154FF000074FF000064FF000082B
:101B1000ADE7F0BC4FF0000001F1C04101F0004121
:101B2000BDE8008111EA0C1F0CEA131500D00CE08F
:101B300013EA0C1F00F025804FF00000F0BC81EA92
:101B4000030101F00041BDE80081F0BCBDE80041A7
:101B500081EA030100F0F4B8F0BCBDE8004170B5C3
:101B600000F0A0F8097EFC3E00F007B881EA03010E
:101B70004FF0000001F00041704781EA030100F0DE
:101B8000DFB8F0BCBDE800414FF0000021497047CC
:101B9000FFFDFBF9F7F5F4F2F0EEEDEBE9E8E6E432
:101BA000E3E1E0DEDDDBDAD8D7D5D4D3D1D0CFCDB9
:101BB000CCCBCAC8C7C6C5C4C2C1C0BFBEBDBCBBF2
:101BC000BAB9B8B7B6B5B4B3B2B1B0AFAEADACABED
:101BD000AAA9A8A8A7A6A5A4A3A3A2A1A09F9F9EC7
:101BE0009D9C9C9B9A999998979796959594939379
:101BF000929191908F8F8E8E8D8C8C8B8B8A898910
:101C00008888878786858584848383828281818092
:101C10000000FF070000F87F4FEA41034FEA5353EB
:101C2000A3F58063D3F11E03C8BFD3F1210C0CDDF3
:101C30004FF0004242EAC12242EA505232FA03FC1B
:101C40008CEAE17CACEBE1707047102BC4BF002044
:101C5000704703F5787CBCF1FF3F04D06FF0004281
:101C600082EA2100704770B500F01CF84992248088
:101C700000207047F2E710F0004248BF4042B0FA3F
:101C800080F310FA03F10AD0C3F11D0303F580635A
:101C90004FEA415002EB035202EBD12170474FF063
:101CA000000070470EF1020E2EF0030E5EF8046B7A
:101CB000364205D4012A43EB030515F5001F12D85F
:101CC000012841EB010C1CF5001F0CD80ED14FEA86
:101CD000D17C15F5001F0CEB4C0C0CF1020C08BF6D
:101CE0004CEBD37C04E04FF0080C01E04FEAD37CCE
:101CF0000CEB4C0526FA05F606F00706B6F1040CC7
:101D000006D20EEB860CBDE870404CF0010C60472B
:101D1000DFE80CF0090B02024FF000414FF0000029
:101D2000A1F5002170BD19461046012851EB0104B0
:101D300018BFD4F5001484BF002001F0004170BD2D
:101D40000808A0F500114FEA310170474FF04070CC
:101D5000E1EE100A70470000004000401000000053
:101D600000800540100000000050004011000000FD
:101D700000900540110000000060004012000000CB
:101D800000A0054012000000007000401300000099
:101D900000B00540130000000040024014000000A5
:101DA00000C0054014000000005002402E0000005A
:101DB00000D005402E000000006002402F0000000F
:101DC00000E005402F0000000070024030000000DD
:101DD00000F005403000000000D003404600000045
:101DE00000000640460000000010064047000000CA
:101DF0000020064048000000003006407F00000040
:101E000000400640800000000050064084000000B2
:101E1000006006408C000000004000401000000000
:101E2000008005401000000000500040110000003C
:101E3000009005401100000000600040120000000A
:101E400000A00540120000000070004013000000D8
:101E500000B00540130000000040024014000000E4
:101E600000C0054014000000005002402E00000099
:101E700000D005402E000000006002402F0000004E
:101E800000E005402F00000000700240300000001C
:101E900000F005403000000000D003404300000087
:101EA000000006404300000000100640440000000F
:101EB00000200640450000000030064058000000A9
:101EC0000040064059000000005006405C00000041
:101ED0000060064064000000007006406C000000D6
:101EE000008006406D000000009006407F0000006A
:101EF0000040004000800540005000400090054038
:101F00000060004000A005400070004000B00540A7
:101F10000040024000C005400050024000D0054093
:101F20000060024000E005400070024000F0054003
:101F300000D003400000064000100640001006409C
:101F400000200640002006400030064000300640D9
:101F50000040064000400640005006400050064049
:101F600000600640006006400070064000700640B9
:101F70000080064000800640009006400090064029
:101F800000688909001C4E0E40420F0000201C0012
:101F900080841E0000802500999E36000040380095
:101FA00000093D0000803E0000004B00404B4C000B
:101FB00000204E00808D5B0000C05D00008070003E
:101FC00000127A0000007D0080969800001BB70088
:101FD0000080BB00C0E8CE00647ADA000024F40080
:101FE0000000FA0080A81201002D310100366E01B8
:101FF00040787D014000000000000000000100006A
:102000003E0008000000000000010000A0000000E9
:102010000200000000010000345401000000000034
:10202000000100002B70060000000000000100000D
:10203000280000000000000000010000270001004F
:10204000000000000001000020000000000000006F
:10205000000100005000000002000000000100002C
:102060001AAC0000000000000001000017940900F5
:1020700000000000000100001698050000000000AC
:10208000000100001400000000000000000100003A
:10209000138008000000000000010000A000000004
:1020A0000800000000010000100000000000000017
:1020B00000010000280000000200000000010000F4
:1020C000400000000400000000010000600000006B
:1020D00000000000000100005D000C000000000096
:1020E000000100005000000000000000000100009E
:1020F0004E000200000000000001000041AC0100A1
:1021000000000000000100003C0000000000000092
:10211000000100003A8009000000000000010000FA
:102120003000000000000000000100002800000056
:102130000000000000010000270001000000000076
:102140000001000023600600000000000001000004
:102150002160080000000000000100001E000000D7
:1021600000000000000100001DC00400000000008D
:10217000000100005000000002000000000100000B
:102180001800000000000000000100001400000022
:1021900000000000000100006000000004000000DA
:1021A000000100000024F40030003000005A6202F8
:1021B0009100910000879303D200D20000B4C404C0
:1021C0001301130100E1F50554015401000E270726
:1021D00095019501F4210000000000204800000056
:1021E0003C0200003C22000048000020C002000029
:1021F0005802000000000000000000003F065B4F96
:10220000666D7D077F6F777C585E79715C0000009A
:1022100000000000000000000000000000000000BE
:1022200000000000FF00FF1200000000000000009E
:0C22300000000000000000000024F4008A
:0400000500000201F4
:00000001FF
